{
  "contractName": "StakeBank",
  "abi": [
    {
      "inputs": [],
      "stateMutability": "payable",
      "type": "constructor",
      "payable": true
    },
    {
      "inputs": [],
      "name": "cannotDepositAfterPeriodZero",
      "type": "error"
    },
    {
      "inputs": [],
      "name": "cannotWithdrawInPeriodZero",
      "type": "error"
    },
    {
      "inputs": [],
      "name": "clientBalanceNotEmpty",
      "type": "error"
    },
    {
      "inputs": [],
      "name": "insufficientBalance",
      "type": "error"
    },
    {
      "anonymous": false,
      "inputs": [
        {
          "indexed": true,
          "internalType": "address",
          "name": "previousOwner",
          "type": "address"
        },
        {
          "indexed": true,
          "internalType": "address",
          "name": "newOwner",
          "type": "address"
        }
      ],
      "name": "OwnershipTransferred",
      "type": "event"
    },
    {
      "anonymous": false,
      "inputs": [
        {
          "indexed": true,
          "internalType": "address",
          "name": "from",
          "type": "address"
        },
        {
          "indexed": false,
          "internalType": "uint256",
          "name": "amount",
          "type": "uint256"
        }
      ],
      "name": "depositMade",
      "type": "event"
    },
    {
      "anonymous": false,
      "inputs": [
        {
          "indexed": true,
          "internalType": "address",
          "name": "from",
          "type": "address"
        },
        {
          "indexed": false,
          "internalType": "uint256",
          "name": "amount",
          "type": "uint256"
        }
      ],
      "name": "pullEvent",
      "type": "event"
    },
    {
      "anonymous": false,
      "inputs": [
        {
          "indexed": true,
          "internalType": "address",
          "name": "from",
          "type": "address"
        },
        {
          "indexed": false,
          "internalType": "uint256",
          "name": "amount",
          "type": "uint256"
        }
      ],
      "name": "withdrawalMade",
      "type": "event"
    },
    {
      "inputs": [],
      "name": "T",
      "outputs": [
        {
          "internalType": "uint32",
          "name": "",
          "type": "uint32"
        }
      ],
      "stateMutability": "view",
      "type": "function",
      "constant": true
    },
    {
      "inputs": [],
      "name": "owner",
      "outputs": [
        {
          "internalType": "address",
          "name": "",
          "type": "address"
        }
      ],
      "stateMutability": "view",
      "type": "function",
      "constant": true
    },
    {
      "inputs": [
        {
          "internalType": "uint256",
          "name": "",
          "type": "uint256"
        }
      ],
      "name": "pools",
      "outputs": [
        {
          "internalType": "uint8",
          "name": "",
          "type": "uint8"
        }
      ],
      "stateMutability": "view",
      "type": "function",
      "constant": true
    },
    {
      "inputs": [],
      "name": "renounceOwnership",
      "outputs": [],
      "stateMutability": "nonpayable",
      "type": "function"
    },
    {
      "inputs": [],
      "name": "rewardsTot",
      "outputs": [
        {
          "internalType": "uint256",
          "name": "",
          "type": "uint256"
        }
      ],
      "stateMutability": "view",
      "type": "function",
      "constant": true
    },
    {
      "inputs": [],
      "name": "start",
      "outputs": [
        {
          "internalType": "uint256",
          "name": "",
          "type": "uint256"
        }
      ],
      "stateMutability": "view",
      "type": "function",
      "constant": true
    },
    {
      "inputs": [
        {
          "internalType": "address",
          "name": "newOwner",
          "type": "address"
        }
      ],
      "name": "transferOwnership",
      "outputs": [],
      "stateMutability": "nonpayable",
      "type": "function"
    },
    {
      "inputs": [],
      "name": "deposit",
      "outputs": [],
      "stateMutability": "payable",
      "type": "function",
      "payable": true
    },
    {
      "inputs": [
        {
          "internalType": "uint256",
          "name": "amount",
          "type": "uint256"
        }
      ],
      "name": "withdraw",
      "outputs": [],
      "stateMutability": "nonpayable",
      "type": "function"
    },
    {
      "inputs": [],
      "name": "pull",
      "outputs": [],
      "stateMutability": "nonpayable",
      "type": "function"
    },
    {
      "inputs": [],
      "name": "balance",
      "outputs": [
        {
          "internalType": "uint256",
          "name": "",
          "type": "uint256"
        }
      ],
      "stateMutability": "view",
      "type": "function",
      "constant": true
    },
    {
      "inputs": [],
      "name": "newBalance",
      "outputs": [
        {
          "internalType": "uint256",
          "name": "",
          "type": "uint256"
        }
      ],
      "stateMutability": "nonpayable",
      "type": "function"
    },
    {
      "inputs": [],
      "name": "poolTot",
      "outputs": [
        {
          "internalType": "uint256",
          "name": "",
          "type": "uint256"
        }
      ],
      "stateMutability": "view",
      "type": "function",
      "constant": true
    },
    {
      "inputs": [],
      "name": "getTime",
      "outputs": [
        {
          "internalType": "uint256",
          "name": "",
          "type": "uint256"
        }
      ],
      "stateMutability": "view",
      "type": "function",
      "constant": true
    },
    {
      "inputs": [],
      "name": "getPeriod",
      "outputs": [
        {
          "internalType": "uint256",
          "name": "",
          "type": "uint256"
        }
      ],
      "stateMutability": "view",
      "type": "function",
      "constant": true
    },
    {
      "inputs": [],
      "name": "nextPeriod",
      "outputs": [
        {
          "internalType": "uint256",
          "name": "",
          "type": "uint256"
        }
      ],
      "stateMutability": "view",
      "type": "function",
      "constant": true
    }
  ],
  "bytecode": "0x60806040526040518060600160405280601460ff168152602001601e60ff168152602001603260ff1681525060059060036200003d9291906200013e565b506200005e620000526200007260201b60201c565b6200007a60201b60201c565b42600381905550346004819055506200020b565b600033905090565b60008060009054906101000a900473ffffffffffffffffffffffffffffffffffffffff169050816000806101000a81548173ffffffffffffffffffffffffffffffffffffffff021916908373ffffffffffffffffffffffffffffffffffffffff1602179055508173ffffffffffffffffffffffffffffffffffffffff168173ffffffffffffffffffffffffffffffffffffffff167f8be0079c531659141344cd1fd0a4f28419497f9722a3daafe3b4186f6b6457e060405160405180910390a35050565b82805482825590600052602060002090601f01602090048101928215620001d95791602002820160005b83821115620001a857835183826101000a81548160ff021916908360ff160217905550926020019260010160208160000104928301926001030262000168565b8015620001d75782816101000a81549060ff0219169055600101602081600001049283019260010302620001a8565b505b509050620001e89190620001ec565b5090565b5b8082111562000207576000816000905550600101620001ed565b5090565b61127b806200021b6000396000f3fe6080604052600436106100f35760003560e01c8063ac4afa381161008a578063d0e30db011610059578063d0e30db0146102e4578063ec607f7d146102ee578063f0bdcf9914610319578063f2fde38b14610344576100f3565b8063ac4afa3814610226578063b69ef8a814610263578063bc464ba61461028e578063be9a6555146102b9576100f3565b80635099c385116100c65780635099c3851461018e578063557ed1ba146101b9578063715018a6146101e45780638da5cb5b146101fb576100f3565b80631ed24195146100f85780632bc80f3a146101235780632e1a7d4d1461014e578063329eb83914610177575b600080fd5b34801561010457600080fd5b5061010d61036d565b60405161011a9190610ecd565b60405180910390f35b34801561012f57600080fd5b506101386103a9565b6040516101459190610ee8565b60405180910390f35b34801561015a57600080fd5b5061017560048036038101906101709190610dc7565b6103ae565b005b34801561018357600080fd5b5061018c610523565b005b34801561019a57600080fd5b506101a361070a565b6040516101b09190610ecd565b60405180910390f35b3480156101c557600080fd5b506101ce61071f565b6040516101db9190610ecd565b60405180910390f35b3480156101f057600080fd5b506101f9610734565b005b34801561020757600080fd5b506102106107bc565b60405161021d9190610e72565b60405180910390f35b34801561023257600080fd5b5061024d60048036038101906102489190610dc7565b6107e5565b60405161025a9190610f03565b60405180910390f35b34801561026f57600080fd5b50610278610819565b6040516102859190610ecd565b60405180910390f35b34801561029a57600080fd5b506102a361086f565b6040516102b09190610ecd565b60405180910390f35b3480156102c557600080fd5b506102ce610a89565b6040516102db9190610ecd565b60405180910390f35b6102ec610a8f565b005b3480156102fa57600080fd5b50610303610b77565b6040516103109190610ecd565b60405180910390f35b34801561032557600080fd5b5061032e610baa565b60405161033b9190610ecd565b60405180910390f35b34801561035057600080fd5b5061036b60048036038101906103669190610d9e565b610bb0565b005b600080603c63ffffffff1661038061071f565b61038a9190610f85565b90506005805490508111156103a25760058054905090505b8091505090565b603c81565b60006103b861036d565b14156103f0576040517f0d9d556100000000000000000000000000000000000000000000000000000000815260040160405180910390fd5b6103f861086f565b81116104ee5780600160003373ffffffffffffffffffffffffffffffffffffffff1673ffffffffffffffffffffffffffffffffffffffff168152602001908152602001600020600082825461044d9190611010565b925050819055503373ffffffffffffffffffffffffffffffffffffffff166108fc829081150290604051600060405180830381858888f1935050505015801561049a573d6000803e3d6000fd5b503373ffffffffffffffffffffffffffffffffffffffff167f1645bc385806bd472276f1f751ecfe0ee20d0ffd7d8ee85761562bdb01e54e6a826040516104e19190610ecd565b60405180910390a2610520565b6040517f47108e3e00000000000000000000000000000000000000000000000000000000815260040160405180910390fd5b50565b600061052d61036d565b1415610565576040517f0d9d556100000000000000000000000000000000000000000000000000000000815260040160405180910390fd5b61056d610ca8565b73ffffffffffffffffffffffffffffffffffffffff1661058b6107bc565b73ffffffffffffffffffffffffffffffffffffffff16146105e1576040517f08c379a00000000000000000000000000000000000000000000000000000000081526004016105d890610ead565b60405180910390fd5b6000600160003373ffffffffffffffffffffffffffffffffffffffff1673ffffffffffffffffffffffffffffffffffffffff1681526020019081526020016000205461062b61070a565b6106359190611010565b111561066d576040517f2b67edf300000000000000000000000000000000000000000000000000000000815260040160405180910390fd5b60004790503373ffffffffffffffffffffffffffffffffffffffff166108fc829081150290604051600060405180830381858888f193505050501580156106b8573d6000803e3d6000fd5b503373ffffffffffffffffffffffffffffffffffffffff167f3ee73b40bb86e1c07c0e35e7c0f39e42d21ec24cac4865b5f73e75667d36fafa826040516106ff9190610ecd565b60405180910390a250565b60006004544761071a9190611010565b905090565b60006003544261072f9190611010565b905090565b61073c610ca8565b73ffffffffffffffffffffffffffffffffffffffff1661075a6107bc565b73ffffffffffffffffffffffffffffffffffffffff16146107b0576040517f08c379a00000000000000000000000000000000000000000000000000000000081526004016107a790610ead565b60405180910390fd5b6107ba6000610cb0565b565b60008060009054906101000a900473ffffffffffffffffffffffffffffffffffffffff16905090565b600581815481106107f557600080fd5b9060005260206000209060209182820401919006915054906101000a900460ff1681565b600080471161082957600061086a565b600160003373ffffffffffffffffffffffffffffffffffffffff1673ffffffffffffffffffffffffffffffffffffffff168152602001908152602001600020545b905090565b600061087961036d565b600260003373ffffffffffffffffffffffffffffffffffffffff1673ffffffffffffffffffffffffffffffffffffffff168152602001908152602001600020541015610a7c57600080600090505b6108cf61036d565b8160ff1610156109595760058160ff1681548110610916577f4e487b7100000000000000000000000000000000000000000000000000000000600052603260045260246000fd5b90600052602060002090602091828204019190069054906101000a900460ff1660ff16826109449190610f2f565b91508080610951906110e6565b9150506108c7565b50600260003373ffffffffffffffffffffffffffffffffffffffff1673ffffffffffffffffffffffffffffffffffffffff16815260200190815260200160002060008154809291906109aa9061109d565b91905055506004546064826109bf9190610f85565b6109c99190610fb6565b6109d161070a565b600160003373ffffffffffffffffffffffffffffffffffffffff1673ffffffffffffffffffffffffffffffffffffffff16815260200190815260200160002054610a1b9190610f85565b610a259190610fb6565b600160003373ffffffffffffffffffffffffffffffffffffffff1673ffffffffffffffffffffffffffffffffffffffff1681526020019081526020016000206000828254610a739190610f2f565b92505081905550505b610a84610819565b905090565b60035481565b6000610a9961036d565b1115610ad1576040517f59f4aa6100000000000000000000000000000000000000000000000000000000815260040160405180910390fd5b34600160003373ffffffffffffffffffffffffffffffffffffffff1673ffffffffffffffffffffffffffffffffffffffff1681526020019081526020016000206000828254610b209190610f2f565b925050819055503373ffffffffffffffffffffffffffffffffffffffff167f14558f60a55f03caac2b3dabdda0b51b20b0e22ce09a2c28cd1dc18e873578e834604051610b6d9190610ecd565b60405180910390a2565b6000603c63ffffffff16610b8961071f565b610b939190611110565b603c63ffffffff16610ba59190611010565b905090565b60045481565b610bb8610ca8565b73ffffffffffffffffffffffffffffffffffffffff16610bd66107bc565b73ffffffffffffffffffffffffffffffffffffffff1614610c2c576040517f08c379a0000000000000000000000000000000000000000000000000000000008152600401610c2390610ead565b60405180910390fd5b600073ffffffffffffffffffffffffffffffffffffffff168173ffffffffffffffffffffffffffffffffffffffff161415610c9c576040517f08c379a0000000000000000000000000000000000000000000000000000000008152600401610c9390610e8d565b60405180910390fd5b610ca581610cb0565b50565b600033905090565b60008060009054906101000a900473ffffffffffffffffffffffffffffffffffffffff169050816000806101000a81548173ffffffffffffffffffffffffffffffffffffffff021916908373ffffffffffffffffffffffffffffffffffffffff1602179055508173ffffffffffffffffffffffffffffffffffffffff168173ffffffffffffffffffffffffffffffffffffffff167f8be0079c531659141344cd1fd0a4f28419497f9722a3daafe3b4186f6b6457e060405160405180910390a35050565b600081359050610d8381611217565b92915050565b600081359050610d988161122e565b92915050565b600060208284031215610db057600080fd5b6000610dbe84828501610d74565b91505092915050565b600060208284031215610dd957600080fd5b6000610de784828501610d89565b91505092915050565b610df981611044565b82525050565b6000610e0c602683610f1e565b9150610e178261119f565b604082019050919050565b6000610e2f602083610f1e565b9150610e3a826111ee565b602082019050919050565b610e4e81611076565b82525050565b610e5d81611080565b82525050565b610e6c81611090565b82525050565b6000602082019050610e876000830184610df0565b92915050565b60006020820190508181036000830152610ea681610dff565b9050919050565b60006020820190508181036000830152610ec681610e22565b9050919050565b6000602082019050610ee26000830184610e45565b92915050565b6000602082019050610efd6000830184610e54565b92915050565b6000602082019050610f186000830184610e63565b92915050565b600082825260208201905092915050565b6000610f3a82611076565b9150610f4583611076565b9250827fffffffffffffffffffffffffffffffffffffffffffffffffffffffffffffffff03821115610f7a57610f79611141565b5b828201905092915050565b6000610f9082611076565b9150610f9b83611076565b925082610fab57610faa611170565b5b828204905092915050565b6000610fc182611076565b9150610fcc83611076565b9250817fffffffffffffffffffffffffffffffffffffffffffffffffffffffffffffffff048311821515161561100557611004611141565b5b828202905092915050565b600061101b82611076565b915061102683611076565b92508282101561103957611038611141565b5b828203905092915050565b600061104f82611056565b9050919050565b600073ffffffffffffffffffffffffffffffffffffffff82169050919050565b6000819050919050565b600063ffffffff82169050919050565b600060ff82169050919050565b60006110a882611076565b91507fffffffffffffffffffffffffffffffffffffffffffffffffffffffffffffffff8214156110db576110da611141565b5b600182019050919050565b60006110f182611090565b915060ff82141561110557611104611141565b5b600182019050919050565b600061111b82611076565b915061112683611076565b92508261113657611135611170565b5b828206905092915050565b7f4e487b7100000000000000000000000000000000000000000000000000000000600052601160045260246000fd5b7f4e487b7100000000000000000000000000000000000000000000000000000000600052601260045260246000fd5b7f4f776e61626c653a206e6577206f776e657220697320746865207a65726f206160008201527f6464726573730000000000000000000000000000000000000000000000000000602082015250565b7f4f776e61626c653a2063616c6c6572206973206e6f7420746865206f776e6572600082015250565b61122081611044565b811461122b57600080fd5b50565b61123781611076565b811461124257600080fd5b5056fea2646970667358221220311eee957d8f60b2f15e426ccbd77d079f2ab9e7c5ccf5ecdce914e4d99bb95164736f6c63430008040033",
  "immutableReferences": {},
  "source": "// SPDX-License-Identifier: GPL-3.0\r\npragma solidity ^0.8.4;\r\n\r\nimport \"@openzeppelin/contracts/access/Ownable.sol\";\r\n\r\ncontract StakeBank is Ownable {\r\n    mapping (address => uint) private balances;\r\n    mapping (address => uint) private rewardCount;\r\n    uint public start; // deployment time\r\n    uint public rewardsTot; // total rewards allocated\r\n\r\n    uint32 constant public T = 1 minutes; // period length\r\n    uint8[] public pools = [20, 30, 50]; // pools reward distribution\r\n\r\n    event depositMade(address indexed from, uint amount);\r\n    event withdrawalMade(address indexed from, uint amount);\r\n    event pullEvent(address indexed from, uint amount);\r\n\r\n    error cannotWithdrawInPeriodZero();\r\n    error cannotDepositAfterPeriodZero();\r\n    error insufficientBalance();\r\n    error clientBalanceNotEmpty();\r\n\r\n    modifier early() {\r\n        if (getPeriod() > 0) revert cannotDepositAfterPeriodZero();\r\n        _;\r\n    }\r\n    modifier late() {\r\n        if (getPeriod() == 0) revert cannotWithdrawInPeriodZero();\r\n        _;\r\n    }\r\n\r\n    constructor() payable {\r\n        start = block.timestamp; // set start time\r\n        rewardsTot = msg.value; // create reward pool\r\n    }\r\n\r\n    // deposit amount\r\n    function deposit() public payable early {\r\n        balances[msg.sender] += msg.value;\r\n        emit depositMade(msg.sender, msg.value);\r\n    }\r\n\r\n    // withdraw amount\r\n    function withdraw(uint amount) public late {\r\n        if (amount <= newBalance()) {\r\n            balances[msg.sender] -= amount;\r\n            payable(msg.sender).transfer(amount);\r\n            emit withdrawalMade(msg.sender, amount);\r\n        } else revert insufficientBalance();\r\n    }\r\n\r\n    // transfer everything to owner\r\n    function pull() public late onlyOwner {\r\n        if (poolTot() - balances[msg.sender] > 0) {\r\n            revert clientBalanceNotEmpty();\r\n        } else {\r\n            uint amount = address(this).balance;\r\n            payable(msg.sender).transfer(amount);\r\n            emit pullEvent(msg.sender, amount);\r\n        }\r\n    }\r\n\r\n    // retrieve account balance\r\n    function balance() public view returns(uint) {\r\n        return (address(this).balance > 0) ?\r\n            balances[msg.sender] : 0;\r\n    }\r\n\r\n    // update balance\r\n    function newBalance() public returns(uint) {\r\n        // claim rewards\r\n        if (rewardCount[msg.sender] < getPeriod()) {\r\n            uint perc;\r\n\r\n            // calculate total rewards percentage\r\n            for (uint8 i = 0; i < getPeriod(); i++)\r\n                perc += pools[i];\r\n\r\n            // current period rewards claimed\r\n            rewardCount[msg.sender]++;\r\n\r\n            // rewards allocated per tokens staked\r\n            balances[msg.sender] += (balances[msg.sender] / poolTot()) * ((perc / 100) * rewardsTot);\r\n        }\r\n\r\n        return balance();\r\n    }\r\n\r\n    // total staked tokens balance\r\n    function poolTot() public view returns(uint) {\r\n        return address(this).balance - rewardsTot;\r\n    }\r\n\r\n    // time since deployment\r\n    function getTime() public view returns(uint) {\r\n        return block.timestamp - start;\r\n    }\r\n\r\n    // periods since deployment\r\n    function getPeriod() public view returns(uint) {\r\n        uint p = (getTime()) / T;\r\n        if (p > pools.length) p = pools.length;\r\n        return p;\r\n    }\r\n\r\n    // time till next period\r\n    function nextPeriod() public view returns(uint) {\r\n        return T - (getTime() % T);\r\n    }\r\n}\r\n",
  "sourcePath": "C:\\Users\\j\\Documents\\raccolta\\computershit\\coding\\solidity\\truffle\\bank\\contracts\\StakeBank.sol",
  "compiler": {
    "name": "solc",
    "version": "0.8.4+commit.c7e474f2.Emscripten.clang"
  },
  "schemaVersion": "3.4.7",
  "updatedAt": "2022-05-17T00:28:11.772Z",
  "networkType": "ethereum",
  "devdoc": {
    "kind": "dev",
    "methods": {
      "owner()": {
        "details": "Returns the address of the current owner."
      },
      "renounceOwnership()": {
        "details": "Leaves the contract without owner. It will not be possible to call `onlyOwner` functions anymore. Can only be called by the current owner. NOTE: Renouncing ownership will leave the contract without an owner, thereby removing any functionality that is only available to the owner."
      },
      "transferOwnership(address)": {
        "details": "Transfers ownership of the contract to a new account (`newOwner`). Can only be called by the current owner."
      }
    },
    "version": 1
  },
  "userdoc": {
    "kind": "user",
    "methods": {},
    "version": 1
  }
}